:1000000000000220F90300003B0400003904000056
:100010003B0400003B0400003B0400000000000023
:100020000000000000000000000000003B04000091
:100030003B040000000000003B0400003B04000003
:100040003B0400003B0400003B0400003B040000B4
:100050003B0400003B0400003B0400003B040000A4
:100060003B0400003B040000000000000000000012
:100070000000000000000000000000000000000080
:100080000000000000000000000000000000000070
:100090000000000000000000000000000000000060
:1000A0000000000000000000000000000000000050
:1003C00080B582B000AF4FF4165000F03FF8002324
:1003D0007B6005E0064800F079F87B6801337B60BC
:1003E0007B68092BF6DD034800F070F8FEE700BFDC
:1003F00098150000A8150000104C114DAC420ADA07
:1004000021686268A3689B00043BA2BFC858D05013
:10041000FAE70C34F2E70B4B0B4CA34209DA1968EC
:100420005A6892000020043AA4BF8850FBE70833C2
:10043000F3E7FFF7C5FFFEE7FEE7FEE784160000DF
:1004400090160000901600009816000080B485B049
:1004500000AF78607B681B010B4A92FBF3F3FB60F3
:100460000A4B80221A60FB68094ADBB21360FB6802
:100470001A12084B1A60054B17221A6000BF143776
:10048000BD4680BC704700BF80F0FA020C00A1445A
:100490000000A1440400A14480B485B000AF03462D
:1004A000FB71084B1B68FB73FB7B03F02003002BE5
:1004B000F7D0054AFB79136000BF1437BD4680BCF6
:1004C000704700BF1400A1440000A14480B582B071
:1004D00000AF78607B68002B0BD006E07B685A1C6D
:1004E0007A601B781846FFF7D7FF7B681B78002BD4
:1004F000F4D100BF0837BD4680BD000003685A0034
:100500004CBF43F0004323F000431844704700BF42
:100510002DE9F04741B301F1FF380546164647463D
:100520000024E11901EBD171491005EBC10A5046D5
:10053000FFF7E4FF884503464FEAC1090ED009F1F1
:100540000800B34228440BD8FFF7D8FF0138B04267
:1005500001F10104E5D35046BDE8F087B042FAD975
:100560008C4201D04F1EDCE74FF0000A5046BDE838
:10057000F08700BF012809D0022805D0044B0028CD
:100580000CBF184600207047024870470248704769
:10059000650C00006D0C0000690C000030B5224BAA
:1005A000044683B08D1E3BB3284601A9AFF30080FB
:1005B000E8B101992A46FFF7ABFF0146B8B1FFF752
:1005C0009DFF4B68A064012B2BD0002B26DB081D60
:1005D000FFF794FF002323650368E064002B12DB20
:1005E000FFF78CFF03460020236103B030BD0023DA
:1005F0000920236103B030BD0C4B0D491846C91AC0
:10060000C9100191D6E7C3F30360FFF7B3FF031EE0
:100610000CBF09200020236103B030BD0123081D59
:10062000D9E700230520DFE700000000AB1500003C
:1006300084160000036810B5DA07044606D49B0749
:1006400000F1500009D500F09DFC2368590709D539
:100650001A070ED5DB0613D510BD00F08BFC2368FE
:100660005907F5D404F1D80000F094FC23681A0768
:10067000F0D404F5AC7000F095FC2368DB06EBD4F5
:1006800004F5EC70BDE8104000F0D0BC03460068F3
:1006900000B11844704700BF09207047704700BF81
:1006A00070B504460E462046316CFFF777FF0546CD
:1006B00098B9D6F840C03246214601202369C4F8D3
:1006C00014C098470828EED0072806D12846316C78
:1006D000FFF7E4FF301D00F041FCFFDE2DE9F0479D
:1006E0004FF0000AADF5767D0DF10C0E01F1040C12
:1006F000C768D0F8188006461446BCE80F00AEE87C
:100700000F00BCE80F00AEE80F00BCE80F00AEE839
:100710000F009CE80F0002AD8EE80F00C5F800A0A6
:1007200021E02B6C4FF4F472294673617CA800F031
:10073000BDFE3146504633697CAA98478A9C824662
:10074000AC640120334632464946CDE90058B847EB
:10075000044630BB4FF4F47228467CA900F0A6FE94
:10076000BAF1080F1AD13046296CFFF717FF04F1D0
:1007700009095FFA89FA04460028D2D0A96B3346EA
:10078000A96432460120CDE900584AF01001B8476B
:1007900038B920460DF5767DBDE8F087BAF1070F30
:1007A00005D0092420460DF5767DBDE8F08720466A
:1007B000296CFFF773FF03A800F0D0FB806C704733
:1007C000F0B54FF0FF37CB6BFBB00B6401AC01F120
:1007D000040C0E460546BCE80F000FC4BCE80F0031
:1007E0000FC4BCE80F000FC49CE80F0084E80F00A2
:1007F000009706E06A4629462B6998470828044670
:1008000008D128461099FFF7C9FE0028F2D0092028
:100810007BB0F0BD6846FFF70DFF062CF7D13146DF
:100820002846FFF73DFF00BF10B414468461DC6B1F
:10083000C16000221C64194610BC4FE770B54369C3
:10084000C6680B64AEB90A46036904460D46014604
:1008500002209847072805D008280ED129462046AF
:10086000FFF71EFF3046296CFFF718FF281D00F028
:1008700075FB0122FFF732FFFFDEFFDEC2682AB1FF
:10088000D1F83CC00022C1F840C027E798E700BF7C
:10089000704700BF836801460BB1012018477047BD
:1008A000052915D8DFE801F00A0314030305012028
:1008B0007047436C009A00201360704743B90F2AB9
:1008C00006D800EB82025368009A0020136070473C
:1008D00002207047002300B585B00A4603A90091A5
:1008E0001946FFF7DDFF039805B05DF804FB00BF74
:1008F000052915D8DFE801F00A03140303050120D8
:100900007047009B1B6843640020704743B90F2A5F
:1009100006D8009B00EB82021B68002053607047E2
:1009200002207047002310B584B003AC03920094FA
:100930000A461946FFF7DCFF04B010BD70B54FF052
:10094000FF36D36BADF5107D13640DF15C0E02F133
:10095000040C05460C46BCE80F00AEE80F00BCE8EE
:100960000F00AEE80F00BCE80F00AEE80F009CE8F7
:100970000F008EE80F00169612E00C2116A86A46AA
:10098000FFF7D0FF214616A8A84778B96946082086
:10099000049B16AA98470528064608D0092805D0C2
:1009A00068462699FFF7FAFD0028E6D0092616A822
:1009B000FFF740FE30460DF5107D70BD2DE9F04F7C
:1009C0001646CA6C0D4652F8041B89B000F0030CA1
:1009D0000692002B79D002240F0C8DF81D700904AB
:1009E000FFB2059102EB8702296DBCF1020F08BF2F
:1009F000AA6B11F001088DF81C4009D0304605A9FA
:100A000000F0AEFB002856D1082009B0BDE8F08FF9
:100A10001768002FF2D0E3469A4600F00801CDE9AE
:100A20000118BAF1020F4CD01788548802F104095A
:100A3000AA6C24F001030F21304603EB0208FFF7F4
:100A400049FF80453BD827F0010202EB08038342AF
:100A500094BF00230123640004F0020407F001079F
:100A60002743012F4ED0022F35D027BBBBF1000FFB
:100A700002D0002B40F0D48009F104021768002F47
:100A8000CFD1304605A9DDF8088000F069FB90B9A8
:100A9000B8F1000FB8D00F213046FFF71BFF0E2131
:100AA00002463046FFF73EFF0F2130466C4AFFF703
:100AB00039FF072000E0092009B0BDE8F08F0023CE
:100AC000C9E7546802F10809B2E709020324059155
:100AD0008DF81D3088E7D9F8004024F00048BBF1BC
:100AE000000F47D12BB1019B002B5CD0B8F1000F58
:100AF00059D0002C01DA09F1040908F1010209EBCF
:100B00008202BBE7BBF1000F1CD1C3B1D9F804309E
:100B1000D9F80020991C4FEAD272CCD005F15804C4
:100B20000133049400F08F8009F10400FFF7AEFD5B
:100B300004AB01462846AFF30080002859D109F1E3
:100B400008029BE70D213046FFF7C4FE2C6A844261
:100B5000F5D1AB6A9945F2D14846FFF7CFFC0F219A
:100B600002463046FFF7DEFE2A4600213046FFF7F8
:100B7000D9FE9EE70D213046FFF7ACFE2F6A874273
:100B8000B7D1AB6A9945B4D100240423C5E90B431E
:100B90004B44C5F828806B63D9F80030A34259DB79
:100BA00001230293A9E705F15803CDF80CB0002406
:100BB000B34609F104071E460BE038460496FFF7DA
:100BC00065FD0022014604AB2846AFF300800437E0
:100BD00000BB444504F10104EFD10D215846FFF755
:100BE00079FE0246049B0620C5E90823C5F8289033
:100BF00062E704460D213046FFF76CFE049E022C8E
:100C000008BFEE62286208BF05F12C060620C5E980
:100C1000096951E75E46D9F80040DDF80CB068E795
:100C20004846FFF76BFC09F104020446AA63284614
:100C3000AFF3008000283FF43EAF22460F2130463C
:100C4000FFF770FE35E730460D21FFF743FE2646DD
:100C50002862DBE708F1010209EB82007DE700BFB3
:100C6000000000000023A9E60123A7E60223A5E671
:100C70002DE9F04105461446C4B0052900F2D7809D
:100C8000DFE811F012002A00D5006900900006008C
:100C9000836B002C40F0CB8053F8042B42648363B9
:100CA000002044B0BDE8F081002B40F0C0804FF040
:100CB000010E816B2A1DA0B20EFA03FC1CEA000F84
:100CC0001CBF51F8046B42F823600133102BF3D1A1
:100CD000A004E5D4A963E3E7012B4FEA1447A4B2CB
:100CE00000F08580052B40F0A28007EB0408B8F1E6
:100CF000200F00F29C800F2F40F29B80002CCFD061
:100D00000268560700F11A81019302AE304600F0E6
:100D100045F94FEA440CA7F11002A86B019B0CF1B6
:100D2000FF3C06EBC2020CF1010C043A00EB8C0113
:100D300050F8044B884242F8044FF9D1012B00F0DF
:100D4000E0800F2FA86302D822A800F01BF93046DC
:100D500000F020F9A4E7032B69D11FFA84F808EB0F
:100D60001443102B4FEA144461D80368180700F1AC
:100D7000C08022AE304600F037F94FEA4801AF6B31
:100D800006EBC4024B1E41B1B81A1158013B42F8A0
:100D9000041B591CF9D107EBC8073046AF6300F0BC
:100DA00001F97DE7002B42D1102C40D80368DE0604
:100DB00000F1978022AE304600F042F9012700236F
:100DC0003046A96B07FA03F2224203F1010305D072
:100DD0000A4652F804CB1146C0F800C0042B00F1BB
:100DE0000400EFD13046A96300F020F958E73A1922
:100DF000102A1CD8102F1AD00268D00708D5284610
:100E000022F0030240F8502B019300F0B7F8019B49
:100E100022AE3046019300F0B1F8A96B019B002C83
:100E200058D104313046A96300F0A4F838E7022015
:100E300037E7B8F1100F026865D9D10772D522F0F3
:100E4000010242F0020240F8502B019300F09EF89C
:100E50002A68019B12F0040F66D122AE304601933E
:100E600000F094F802A800F099F8C7F110025200BF
:100E7000A96B019B541EA8F1100C06EBC7020134AC
:100E8000043A01EB840051F8044B814242F8044FCC
:100E9000F9D1BCF1000F59D0102F3A4638BF1022BB
:100EA0004FEA4C0C02AE103A0CF1FF3C06EBC202CA
:100EB00039E7284622F0010242F0020240F8502BA6
:100EC00022AE019300F062F8304600F05FF8A96BA3
:100ED00024B3019B64004FF0000C013C06EBC702F9
:100EE000CDE723F01003036000F5EC7000F0A8F8E4
:100EF00060E723F008032B6005F5AC7000F074F890
:100F000037E722AE8DE7D107D3D422AE3046019326
:100F100000F03CF8A96B019B002CDBD1304600F0BF
:100F200031F8BDE6540798D5284622F0040240F86F
:100F3000D82B019300F032F8019B8EE722F00402D7
:100F400040F8D82B019300F029F8DEE6012B3FF49E
:100F500068AF0F2FA9633FF6A3AEDFE700F13401BE
:100F600091E838009C46A6464CF8045D90E8FF0FD7
:100F7000E54600BD90EC210B704700BF80EC210BD3
:100F8000704700BF90EC200B704700BF80EC200B37
:100F9000704700BFD0EC200B704700BFC0EC200BA7
:100FA000704700BFF0EC0201F0EC0211F0EC0221FE
:100FB000F0EC0231F0EC0241F0EC0251F0EC026195
:100FC000F0EC0271F0EC0281F0EC0291F0EC02A185
:100FD000F0EC02B1F0EC02C1F0EC02D1F0EC02E175
:100FE000F0EC02F1704700BFE0EC0201E0EC02110E
:100FF000E0EC0221E0EC0231E0EC0241E0EC0251D5
:10100000E0EC0261E0EC0271E0EC0281E0EC0291C4
:10101000E0EC02A1E0EC02B1E0EC02C1E0EC02D1B4
:10102000E0EC02E1E0EC02F1704700BFB0FC0181AE
:10103000B0FC0191B0FC01A1B0FC01B1704700BF50
:10104000A0FC0181A0FC0191A0FC01A1A0FC01B1C8
:10105000704700BFEC4600B52DE900502DE9FF1F99
:101060004FF000032DE90C0001A9FFF7A9FBDDF803
:1010700040E012B0704700BFEC4600B52DE90050CB
:101080002DE9FF1F4FF000032DE90C0001A9FFF728
:10109000D5FBDDF840E012B0704700BFEC4600B56C
:1010A0002DE900502DE9FF1F4FF000032DE90C0042
:1010B00001A9FFF7E3FBDDF840E012B0704700BF85
:1010C000EC4600B52DE900502DE9FF1F4FF000035D
:1010D0002DE90C0001ABFFF7A7FBDDF840E012B0F3
:1010E000704700BFEC4600B52DE900502DE9FF1F09
:1010F0004FF000032DE90C0001AAFFF71FFCDDF8FB
:1011000040E012B0704700BF027A03467AB9427AD3
:10111000A2B14FF0030C4168013A427208680A1DFF
:101120005A60020283F808C0000E1A607047006817
:10113000013A1A7202021A60000E7047B02070471E
:10114000002300B585B003A900910C221946FFF7D2
:10115000A7FB039805B05DF804FB00BFF0E700BFF4
:101160002DE9F0434FF0000806460D4685B02846AD
:10117000FFF7CAFFB028044600F0128107065CD5CD
:1011800000F0F003A02B1AD030D8802B00F0838021
:10119000902B27D100F00D030D2B23D0002302AF9D
:1011A000194600F00F0200973046FFF779FB002345
:1011B0000D22194630460097FFF79AFBD7E7C34345
:1011C0004FF47F6203F007031A41010702F47F62C4
:1011D00001D542F48042002330461946FFF748FD0E
:1011E0000028C4D0092005B0BDE8F083B02B69D039
:1011F000C02B3ED1C62800F0BF80C72800F0D580A4
:1012000000F0F803C02B00F0E280C82800F0ED8069
:10121000C928E7D12846FFF777FF052301210446B7
:10122000220304F00F0402F470220C4430462243DF
:10123000FFF71EFD00289AD0D4E78300DBB21F1D04
:1012400000230DF1080919460D223046CDF8009013
:10125000FFF726FB029B60064CBFDF1BFF18002335
:101260000D2230461946CDF800900297FFF740FB5B
:101270007DE700F0F803D02BB4D100F00702013273
:1012800005230121304642F40022FFF7F1FC00283B
:101290003FF46DAFA6E72846FFF736FF2402204350
:1012A000B0F5004F9ED00023040119463046A2B28B
:1012B000FFF7DEFC002895D114F4004F18BF4FF063
:1012C000010854E7A0F1B103042B00F2B380DFE87A
:1012D00003F0491D160C0300002303AA00923046B8
:1012E0000D221946FFF7DCFA41E7002305213046BD
:1012F0001A46FFF7BDFC00283FF439AF72E72846D5
:10130000FFF702FF01230446194689E700230DF188
:1013100008090D2219463046CDF80090FFF7C0FAB3
:101320002846FFF7F1FE02064FF00207029C0BD59C
:1013300000F07F00B840044428460294FFF7E4FE22
:10134000030607F10707F3D40023B84004F501743E
:1013500004440D2230461946CDF800900294FFF760
:10136000C7FA04E72846FFF7CFFE431EDBB20E2B79
:1013700002467FF630AF35E72846FFF7C5FE044644
:101380000323220304F00F0402F4702201341946EF
:1013900030462243FFF76CFC00283FF4E8AE21E71B
:1013A000B8F1000F36D000201DE72846FFF7ACFE4D
:1013B000431EDBB20E2B02463FF614AF002304217E
:1013C0003046FFF755FC00283FF4D1AE0AE703236F
:1013D00000F00F0201323046194642F42022FFF796
:1013E00047FC00283FF4C3AEFCE62846FFF78CFE1E
:1013F0000246012102F0F00402F00F0210340A4408
:101400000523304642EA0432FFF732FC00283FF45D
:10141000AEAEE7E602AC434641460E2230460094AB
:10142000FFF73EFA0F224346414630460094FFF74D
:101430005FFAB8E700F0FC03B42B3FF4D3AE01230E
:1014400000F007021A443046194642F40022FFF722
:101450000FFC00283FF48BAEC4E600BF0B464FF0F4
:10146000030C00B5C26C1846536885B0083202926E
:1014700001A91A0E1B028DF80CC001938DF80D20E6
:10148000FFF76EFE05B05DF804FB00BF08B5FFF77F
:1014900065FE806C08BD00BF08B5FFF75FFEC06C3D
:1014A000C37900EB8300083008BD00BF844641EAE1
:1014B000000313F0030349D1403A23D30B680360C0
:1014C0004B6843608B688360CB68C3600B690361C2
:1014D0004B6943618B698361CB69C3610B6A0362AA
:1014E0004B6A43628B6A8362CB6AC3620B6B036392
:1014F0004B6B43638B6B8363CB6BC3634030403177
:10150000403ADBD230320BD30B6803604B68436048
:101510008B688360CB68C36010301031103AF3D20F
:101520000C3205D351F8043B40F8043B043AF9D29D
:10153000043208D0D2071CBF11F8013B00F8013B70
:1015400001D30B8803806046704700BF082A13D37D
:101550008B07B1D010F00303AED0C3F10403D21A4D
:10156000DB071CBF11F8013B00F8013BA4D331F8A5
:10157000023B20F8023B9FE7043AD9D3013A11F825
:10158000013B00F8013BF9D20B7803704B784370B4
:101590008B7883706046704748656C6C6F20576F1E
:0B15A000726C640A0D0000000A0D00D0
:1015AC0008B10181B0B000840000000008B10181D5
:0815BC00B0B000840000000043
:1015C40034EEFF7FB0B0B08080EEFF7F01000000FA
:1015D400C8EFFF7FB0A9028058F0FF7FB0B0A880A9
:1015E400A8F0FF7F01000000B4F0FF7FB0B0AA8034
:1015F400E8F0FF7FAE75B280C0F1FF7F010000000C
:10160400BCF1FF7FAB3F3A801CF2FF7F010000007A
:1016140028F2FF7FB0B0AA8060F2FF7F01000000D3
:1016240018F3FF7FAA0FB28090F3FF7FB0AF08805A
:1016340030F6FF7F0100000034F6FF7FAC3F0380EB
:1016440018F9FF7F01000000F4FAFF7F0084048092
:1016540008FBFF7F0100000004FBFF7FB0AD0480A6
:10166400F8FDFF7F0084048020FEFF7F3CFFFF7FA6
:1016740024FEFF7F40FFFF7F30FEFF7F010000005C
:0C168400981600009816000000000000FE
:08169000000000200000000032
:04000003000003F9FD
:00000001FF
